:0BE1C0009000E7EBF0A3EAF0A3E9F009
:10E1CB00A312CAF000000000E47F40FEFDFC9000AB
:10E1DB00EAE0F8A3E0F9A3E0FAA3E0FBC312CA6BF1
:10E1EB00503E9000EAA3A3E0FEA3E0FF9000E7E01F
:10E1FB00FBA3E0FAA3E0F98F828E83E412C90690A9
:10E20B0000EAE0FCA3E0FDA3E0FEA3E02401FFE4B1
:10E21B003EFEE43DFDE43CFC9000EA12CAE480A81B
:01E22B0022D0
:0B6600009000F4EBF0A3EAF0A3E9F037
:10660B009000FAE0FFD364809478500302B618EF41
:10661B0064809488400302B618A3E0FF64809478EA
:10662B00500302B618EF64809488400302B618A397
:10663B00E0FF64809478500302B618EF648094886E
:10664B00400302B6189000FAE0FFC36480948050B8
:10665B000DEFF404900190F0A37408F08012E49015
:10666B000190F09000FAE0FFC374089F900191F045
:10667B009000FBE0FFC364809480500DEFF4049016
:10668B000192F0A37408F08012E4900192F0900054
:10669B00FBE0FFC374089F900193F09000FDE06056
:1066AB000302803E9000FFE064016003026AD29017
:1066BB0000FEE060030267A7900192E0900195F065
:1066CB00900193E0FF900195E0FEC3EF6480F8EE3C
:1066DB00648098400302B618900190E0900194F00A
:1066EB00900191E0FF900194E0FEC3EF6480F8EE1F
:1066FB00648098400302679E9000F7E0FBA3E0FAEA
:10670B00A3E0F9EEFF3395E08F82F58312C8C7FD46
:10671B007C00900195E0FB74017E00A803088005C6
:10672B00C333CE33CED8F9FFEE5CFEEF5D4E605A2D
:10673B009000FBE0FF3395E0FEEBFD3395E0FCEDC5
:10674B002FFFEC3EFEEF7803C333CE33CED8F9FFE9
:10675B009000FCE0FD3395E04EFEEF4DFF9000F412
:10676B00E0FBA3E0FAA3E02FF9EA3EFA12C8AEFF72
:10677B009000FAE0FE900194E02EFE7480A80608CB
:10678B008002C313D8FC4F12C8F4900194E004F0BC
:10679B000266EB900195E004F00266CB9000FEE000
:1067AB0064016003026897900192E0900195F0906C
:1067BB000193E0FF900195E0FEC3EF6480F8EE6477
:1067CB008098400302B618900190E0900194F090ED
:1067DB000191E0FF900194E0FEC3EF6480F8EE645A
:1067EB008098400302688E9000F7E0FBA3E0FAA3C9
:1067FB00E0F9EEFF3395E08F82F58312C8C7FD7C7D
:10680B0000900195E0FB74017E00A803088005C38E
:10681B0033CE33CED8F9FFEE5CFEEF5D4E605B906E
:10682B0000FBE0FF3395E0FEEBFD3395E0FCED2F35
:10683B00FFEC3EFEEF7803C333CE33CED8F9FF9097
:10684B0000FCE0FD3395E04EFEEF4DFF9000F4E0D1
:10685B00FBA3E0FAA3E02FF9EA3EFA12C8AEFF90D1
:10686B0000FAE0FE900194E02EFE7480A8060880EA
:10687B0002C313D8FCF45F12C8F4900194E004F047
:10688B000267DA900195E004F00267BA9000FEE02F
:10689B0064026003026986900192E0900195F0908A
:1068AB000193E0FF900195E0FEC3EF6480F8EE6486
:1068BB008098400302B618900190E0900194F090FC
:1068CB000191E0FF900194E0FEC3EF6480F8EE6469
:1068DB008098400302697D9000F7E0FBA3E0FAA3E8
:1068EB00E0F9EEFF3395E08F82F58312C8C7FD7C8C
:1068FB0000900195E0FB74017E00A803088005C39E
:10690B0033CE33CED8F9FFEE5CFEEF5D4E605A907E
:10691B0000FBE0FF3395E0FEEBFD3395E0FCED2F44
:10692B00FFEC3EFEEF7803C333CE33CED8F9FF90A6
:10693B0000FCE0FD3395E04EFEEF4DFF9000F4E0E0
:10694B00FBA3E0FAA3E02FF9EA3EFA12C8AEFF90E0
:10695B0000FAE0FE900194E02EFE7480A8060880F9
:10696B0002C313D8FC6F12C8F4900194E004F00238
:10697B0068CA900195E004F00268AA9000FEE064FA
:10698B0003600302B618900192E0900195F090011C
:10699B0093E0FF900195E0FEC3EF6480F8EE648016
:1069AB0098400302B618900190E0900194F090018A
:1069BB0091E0FF900194E0FEC3EF6480F8EE6480F9
:1069CB00984003026AC99000F7E0FBA3E0FAA3E04A
:1069DB00F9EEFF3395E08F82F58312C8C7FD7C007B
:1069EB00900195E0FB74017E00A803088005C3337A
:1069FB00CE33CED8F9FFEE5CFEEF5D4E60599000C2
:106A0B00FBE0FF3395E0FEEBFD3395E0FCED2FFF54
:106A1B00EC3EFEEF7803C333CE33CED8F9FF9000B4
:106A2B00FCE0FD3395E04EFEEF4DFF9000F4E0FBF4
:106A3B00A3E0FAA3E02FF9EA3EFA12C8AEFF9000EA
:106A4B00FAE0FE900194E02EFE7480A80608800206
:106A5B00C313D8FC4F805B9000FBE0FF3395E0FE47
:106A6B00900195E0FD3395E0FCED2FFFEC3EFEEF42
:106A7B007803C333CE33CED8F9FF9000FCE0FD335F
:106A8B0095E04EFEEF4DFF9000F4E0FBA3E0FAA380
:106A9B00E02FF9EA3EFA12C8AEFF9000FAE0FE9042
:106AAB000194E02EFE7480A806088002C313D8FC64
:106ABB00F45F12C8F4900194E004F00269B99001FC
:106ACB0095E004F00269999000FFE0640260030214
:106ADB006F299000FEE06003026BD7900192E0906B
:106AEB000195F0900193E0FF900195E0FEC3EF64F8
:106AFB0080F8EE648098400302B618900190E09005
:106B0B000194F0900191E0FF900194E0FEC3EF64DB
:106B1B0080F8EE6480984003026BCEA3E0FF3395C0
:106B2B00E0FEC374079FFFE49EFE9000F7E0FBA31B
:106B3B00E0FAA3E0F98F828E8312C8C7FD7C009028
:106B4B000194E0FF74017E00A807088005C333CED3
:106B5B0033CED8F9FFEE5CFEEF5D4E605D9000FB2F
:106B6B00E0FF3395E0FE900195E0FD3395E0FCED01
:106B7B002FFFEC3EFEEF7803C333CE33CED8F9FFB5
:106B8B009000FCE0FD3395E04EFEEF4DFF9000F4DE
:106B9B00E0FBA3E0FAA3E02FF9EA3EFA12C8AEFF3E
:106BAB009000FAE0FE900194E02EFE7480A8060897
:106BBB008002C313D8FC4F12C8F4900194E004F088
:106BCB00026B0E900195E004F0026AEE9000FEE07D
:106BDB0064016003026CD4900192E0900195F090F7
:106BEB000193E0FF900195E0FEC3EF6480F8EE6443
:106BFB008098400302B618900190E0900194F090B9
:106C0B000191E0FF900194E0FEC3EF6480F8EE6425
:106C1B0080984003026CCBA3E0FF3395E0FEC37476
:106C2B00079FFFE49EFE9000F7E0FBA3E0FAA3E0D2
:106C3B00F98F828E8312C8C7FD7C00900194E0FF10
:106C4B0074017E00A807088005C333CE33CED8F974
:106C5B00FFEE5CFEEF5D4E605E9000FBE0FF339558
:106C6B00E0FE900195E0FD3395E0FCED2FFFEC3E4F
:106C7B00FEEF7803C333CE33CED8F9FF9000FCE0A0
:106C8B00FD3395E04EFEEF4DFF9000F4E0FBA3E0EB
:106C9B00FAA3E02FF9EA3EFA12C8AEFF9000FAE031
:106CAB00FE900194E02EFE7480A806088002C313A8
:106CBB00D8FCF45F12C8F4900194E004F0026C0A63
:106CCB00900195E004F0026BEA9000FEE064026034
:106CDB0003026DD0900192E0900195F0900193E04A
:106CEB00FF900195E0FEC3EF6480F8EE648098405E
:106CFB000302B618900190E0900194F0900191E09E
:106D0B00FF900194E0FEC3EF6480F8EE648098403E
:106D1B0003026DC7A3E0FF3395E0FEC374079FFF2B
:106D2B00E49EFE9000F7E0FBA3E0FAA3E0F98F826C
:106D3B008E8312C8C7FD7C00900194E0FF74017E26
:106D4B0000A807088005C333CE33CED8F9FFEE5C1D
:106D5B00FEEF5D4E605D9000FBE0FF3395E0FE9033
:106D6B000195E0FD3395E0FCED2FFFEC3EFEEF7857
:106D7B0003C333CE33CED8F9FF9000FCE0FD33953F
:106D8B00E04EFEEF4DFF9000F4E0FBA3E0FAA3E032
:106D9B002FF9EA3EFA12C8AEFF9000FAE0FE90011E
:106DAB0094E02EFE7480A806088002C313D8FC6FF3
:106DBB0012C8F4900194E004F0026D07900195E085
:106DCB0004F0026CE79000FEE06403600302B61867
:106DDB00900192E0900195F0900193E0FF90019566
:106DEB00E0FEC3EF6480F8EE648098400302B618AF
:106DFB00900190E0900194F0900191E0FF9001944C
:106E0B00E0FEC3EF6480F8EE6480984003026F20CD
:106E1B00A3E0FF3395E0FEC374079FFFE49EFE9053
:106E2B0000F7E0FBA3E0FAA3E0F98F828E8312C890
:106E3B00C7FD7C00900194E0FF74017E00A8070859
:106E4B008005C333CE33CED8F9FFEE5CFEEF5D4E3B
:106E5B00605C9000FBE0FF3395E0FE900195E0FD58
:106E6B003395E0FCED2FFFEC3EFEEF7803C333CE02
:106E7B0033CED8F9FF9000FCE0FD3395E04EFEEFEA
:106E8B004DFF9000F4E0FBA3E0FAA3E02FF9EA3EFC
:106E9B00FA12C8AEFF9000FAE0FE900194E02EFECD
:106EAB007480A806088002C313D8FC4F805B900047
:106EBB00FBE0FF3395E0FE900195E0FD3395E0FCA0
:106ECB00ED2FFFEC3EFEEF7803C333CE33CED8F974
:106EDB00FF9000FCE0FD3395E04EFEEF4DFF900080
:106EEB00F4E0FBA3E0FAA3E02FF9EA3EFA12C8AEF6
:106EFB00FF9000FAE0FE900194E02EFE7480A8064D
:106F0B00088002C313D8FCF45F12C8F4900194E01C
:106F1B0004F0026E03900195E004F0026DE3900023
:106F2B00FFE0640360030273749000FEE0600302F1
:106F3B00702B900192E0900195F0900193E0FF90FF
:106F4B000195E0FEC3EF6480F8EE64809840030285
:106F5B00B618900190E0900194F0900191E0FF90B1
:106F6B000194E0FEC3EF6480F8EE64809840030266
:106F7B007022EEFF3395E0FEC374079FFFE49EFE85
:106F8B009000F7E0FBA3E0FAA3E0F98F828E831267
:106F9B00C8C7FD7C00900195E0FB74807E00A803C0
:106FAB00088006CEA2E713CE13D8F8FFEE5CFEEFF7
:106FBB005D4E605A9000FBE0FF3395E0FEEBFD3336
:106FCB0095E0FCED2FFFEC3EFEEF7803C333CE33A1
:106FDB00CED8F9FF9000FCE0FD3395E04EFEEF4D6F
:106FEB00FF9000F4E0FBA3E0FAA3E02FF9EA3EFAEE
:106FFB0012C8AEFF9000FAE0FE900194E02EFE74F2
:10700B0080A806088002C313D8FC4F12C8F4900165
:10701B0094E004F0026F65900195E004F0026F4577
:10702B009000FEE064016003027125900192E090F4
:10703B000195F0900193E0FF900195E0FEC3EF64A2
:10704B0080F8EE648098400302B618900190E090AF
:10705B000194F0900191E0FF900194E0FEC3EF6486
:10706B0080F8EE648098400302711CEEFF3395E0CC
:10707B00FEC374079FFFE49EFE9000F7E0FBA3E0C6
:10708B00FAA3E0F98F828E8312C8C7FD7C009001B2
:10709B0095E0FB74807E00A803088006CEA2E71360
:1070AB00CE13D8F8FFEE5CFEEF5D4E605B9000FBFD
:1070BB00E0FF3395E0FEEBFD3395E0FCED2FFFECAD
:1070CB003EFEEF7803C333CE33CED8F9FF9000FCEE
:1070DB00E0FD3395E04EFEEF4DFF9000F4E0FBA397
:1070EB00E0FAA3E02FF9EA3EFA12C8AEFF9000FADD
:1070FB00E0FE900194E02EFE7480A806088002C387
:10710B0013D8FCF45F12C8F4900194E004F0027001
:10711B005E900195E004F002703E9000FEE0640288
:10712B00600302721E900192E0900195F090019322
:10713B00E0FF900195E0FEC3EF6480F8EE64809869
:10714B00400302B618900190E0900194F0900191E9
:10715B00E0FF900194E0FEC3EF6480F8EE6480984A
:10716B004003027215EEFF3395E0FEC374079FFFD9
:10717B00E49EFE9000F7E0FBA3E0FAA3E0F98F8218
:10718B008E8312C8C7FD7C00900195E0FB74807E56
:10719B0000A803088006CEA2E713CE13D8F8FFEEA3
:1071AB005CFEEF5D4E605A9000FBE0FF3395E0FE16
:1071BB00EBFD3395E0FCED2FFFEC3EFEEF7803C3C8
:1071CB0033CE33CED8F9FF9000FCE0FD3395E04E83
:1071DB00FEEF4DFF9000F4E0FBA3E0FAA3E02FF9E4
:1071EB00EA3EFA12C8AEFF9000FAE0FE900194E07E
:1071FB002EFE7480A806088002C313D8FC6F12C839
:10720B00F4900194E004F0027158900195E004F0C1
:10721B000271389000FEE06403600302B61890011F
:10722B0092E0900195F0900193E0FF900195E0FEC4
:10723B00C3EF6480F8EE648098400302B6189001A7
:10724B0090E0900194F0900191E0FF900194E0FEAA
:10725B00C3EF6480F8EE648098400302736BEEFF1B
:10726B003395E0FEC374079FFFE49EFE9000F7E0AA
:10727B00FBA3E0FAA3E0F98F828E8312C8C7FD7CD3
:10728B0000900195E0FB74807E00A803088006CE79
:10729B00A2E713CE13D8F8FFEE5CFEEF5D4E6059FC
:1072AB009000FBE0FF3395E0FEEBFD3395E0FCED4A
:1072BB002FFFEC3EFEEF7803C333CE33CED8F9FF6E
:1072CB009000FCE0FD3395E04EFEEF4DFF9000F497
:1072DB00E0FBA3E0FAA3E02FF9EA3EFA12C8AEFFF7
:1072EB009000FAE0FE900194E02EFE7480A8060850
:1072FB008002C313D8FC4F805B9000FBE0FF3395FB
:10730B00E0FE900195E0FD3395E0FCED2FFFEC3EA8
:10731B00FEEF7803C333CE33CED8F9FF9000FCE0F9
:10732B00FD3395E04EFEEF4DFF9000F4E0FBA3E044
:10733B00FAA3E02FF9EA3EFA12C8AEFF9000FAE08A
:10734B00FE900194E02EFE7480A806088002C31301
:10735B00D8FCF45F12C8F4900194E004F00272516F
:10736B00900195E004F00272319000FFE06404603C
:10737B00030277AF9000FEE06003027472900192FB
:10738B00E0900195F0900193E0FF900195E0FEC332
:10739B00EF6480F8EE648098400302B61890019079
:1073AB00E0900194F0900191E0FF900194E0FEC316
:1073BB00EF6480F8EE64809840030274699000F7E4
:1073CB00E0FBA3E0FAA3E0F9900195E0FF3395E031
:1073DB008F82F58312C8C7FD7C00900194E0FF7487
:1073EB00017E00A807088005C333CE33CED8F9FF42
:1073FB00EE5CFEEF5D4E605D9000FBE0FF3395E0D1
:10740B00FE900195E0FD3395E0FCED2FFFEC3EFE89
:10741B00EF7803C333CE33CED8F9FF9000FCE0FDF9
:10742B003395E04EFEEF4DFF9000F4E0FBA3E0FA46
:10743B00A3E02FF9EA3EFA12C8AEFF9000FAE0FE85
:10744B00900194E02EFE7480A806088002C313D826
:10745B00FC4F12C8F4900194E004F00273B0900159
:10746B0095E004F00273909000FEE064016003026B
:10747B007568900192E0900195F0900193E0FF9078
:10748B000195E0FEC3EF6480F8EE64809840030240
:10749B00B618900190E0900194F0900191E0FF906C
:1074AB000194E0FEC3EF6480F8EE64809840030221
:1074BB00755F9000F7E0FBA3E0FAA3E0F99001956C
:1074CB00E0FF3395E08F82F58312C8C7FD7C0090F7
:1074DB000194E0FF74017E00A807088005C333CE3A
:1074EB0033CED8F9FFEE5CFEEF5D4E605E9000FB95
:1074FB00E0FF3395E0FE900195E0FD3395E0FCED68
:10750B002FFFEC3EFEEF7803C333CE33CED8F9FF1B
:10751B009000FCE0FD3395E04EFEEF4DFF9000F444
:10752B00E0FBA3E0FAA3E02FF9EA3EFA12C8AEFFA4
:10753B009000FAE0FE900194E02EFE7480A80608FD
:10754B008002C313D8FCF45F12C8F4900194E004DA
:10755B00F00274A5900195E004F00274859000FE92
:10756B00E06402600302765D900192E0900195F079
:10757B00900193E0FF900195E0FEC3EF6480F8EE7D
:10758B00648098400302B618900190E0900194F04B
:10759B00900191E0FF900194E0FEC3EF6480F8EE60
:1075AB0064809840030276549000F7E0FBA3E0FA66
:1075BB00A3E0F9900195E0FF3395E08F82F58312FC
:1075CB00C8C7FD7C00900194E0FF74017E00A80702
:1075DB00088005C333CE33CED8F9FFEE5CFEEF5DEA
:1075EB004E605D9000FBE0FF3395E0FE900195E06F
:1075FB00FD3395E0FCED2FFFEC3EFEEF7803C3333C
:10760B00CE33CED8F9FF9000FCE0FD3395E04EFE73
:10761B00EF4DFF9000F4E0FBA3E0FAA3E02FF9EAB3
:10762B003EFA12C8AEFF9000FAE0FE900194E02EF5
:10763B00FE7480A806088002C313D8FC6F12C8F42E
:10764B00900194E004F002759B900195E004F00228
:10765B00757B9000FEE06403600302B61890019204
:10766B00E0900195F0900193E0FF900195E0FEC34F
:10767B00EF6480F8EE648098400302B61890019096
:10768B00E0900194F0900191E0FF900194E0FEC333
:10769B00EF6480F8EE64809840030277A69000F7C1
:1076AB00E0FBA3E0FAA3E0F9900195E0FF3395E04E
:1076BB008F82F58312C8C7FD7C00900194E0FF74A4
:1076CB00017E00A807088005C333CE33CED8F9FF5F
:1076DB00EE5CFEEF5D4E605C9000FBE0FF3395E0EF
:1076EB00FE900195E0FD3395E0FCED2FFFEC3EFEA7
:1076FB00EF7803C333CE33CED8F9FF9000FCE0FD17
:10770B003395E04EFEEF4DFF9000F4E0FBA3E0FA63
:10771B00A3E02FF9EA3EFA12C8AEFF9000FAE0FEA2
:10772B00900194E02EFE7480A806088002C313D843
:10773B00FC4F805B9000FBE0FF3395E0FE900195E2
:10774B00E0FD3395E0FCED2FFFEC3EFEEF7803C33D
:10775B0033CE33CED8F9FF9000FCE0FD3395E04EED
:10776B00FEEF4DFF9000F4E0FBA3E0FAA3E02FF94E
:10777B00EA3EFA12C8AEFF9000FAE0FE900194E0E8
:10778B002EFE7480A806088002C313D8FCF45F1287
:10779B00C8F4900194E004F0027690900195E00417
:1077AB00F00276709000FFE064056003027C0A90A3
:1077BB0000FEE060030278B5900192E0900195F035
:1077CB00900193E0FF900195E0FEC3EF6480F8EE2B
:1077DB00648098400302B618900190E0900194F0F9
:1077EB00900191E0FF900194E0FEC3EF6480F8EE0E
:1077FB0064809840030278ACA3E0FF3395E0FEC3AE
:10780B0074079FFFE49EFE9000F7E0FBA3E0FAA352
:10781B00E0F98F828E8312C8C7FD7C00900194E043
:10782B00FF74807E00A807088006CEA2E713CE1354
:10783B00D8F8FFEE5CFEEF5D4E605D9000FBE0FF65
:10784B003395E0FE900195E0FD3395E0FCED2FFFC5
:10785B00EC3EFEEF7803C333CE33CED8F9FF900066
:10786B00FCE0FD3395E04EFEEF4DFF9000F4E0FBA6
:10787B00A3E0FAA3E02FF9EA3EFA12C8AEFF90009C
:10788B00FAE0FE900194E02EFE7480A806088002B8
:10789B00C313D8FC4F12C8F4900194E004F00277A4
:1078AB00EB900195E004F00277CB9000FEE06401D1
:1078BB0060030279B3900192E0900195F0900193EF
:1078CB00E0FF900195E0FEC3EF6480F8EE648098D2
:1078DB00400302B618900190E0900194F090019152
:1078EB00E0FF900194E0FEC3EF6480F8EE648098B3
:1078FB0040030279AAA3E0FF3395E0FEC374079F10
:10790B00FFE49EFE9000F7E0FBA3E0FAA3E0F98F03
:10791B00828E8312C8C7FD7C00900194E0FF7480B7
:10792B007E00A807088006CEA2E713CE13D8F8FF77
:10793B00EE5CFEEF5D4E605E9000FBE0FF3395E08A
:10794B00FE900195E0FD3395E0FCED2FFFEC3EFE44
:10795B00EF7803C333CE33CED8F9FF9000FCE0FDB4
:10796B003395E04EFEEF4DFF9000F4E0FBA3E0FA01
:10797B00A3E02FF9EA3EFA12C8AEFF9000FAE0FE40
:10798B00900194E02EFE7480A806088002C313D8E1
:10799B00FCF45F12C8F4900194E004F00278E890D4
:1079AB000195E004F00278C89000FEE064026003E9
:1079BB00027AB0900192E0900195F0900193E0FF74
:1079CB00900195E0FEC3EF6480F8EE64809840036D
:1079DB0002B618900190E0900194F0900191E0FFB5
:1079EB00900194E0FEC3EF6480F8EE64809840034E
:1079FB00027AA7A3E0FF3395E0FEC374079FFFE471
:107A0B009EFE9000F7E0FBA3E0FAA3E0F98F828ED5
:107A1B008312C8C7FD7C00900194E0FF74807E0048
:107A2B00A807088006CEA2E713CE13D8F8FFEE5CAA
:107A3B00FEEF5D4E605D9000FBE0FF3395E0FE9046
:107A4B000195E0FD3395E0FCED2FFFEC3EFEEF786A
:107A5B0003C333CE33CED8F9FF9000FCE0FD339552
:107A6B00E04EFEEF4DFF9000F4E0FBA3E0FAA3E045
:107A7B002FF9EA3EFA12C8AEFF9000FAE0FE900131
:107A8B0094E02EFE7480A806088002C313D8FC6F06
:107A9B0012C8F4900194E004F00279E6900195E0AD
:107AAB0004F00279C69000FEE06403600302B6188E
:107ABB00900192E0900195F0900193E0FF90019579
:107ACB00E0FEC3EF6480F8EE648098400302B618C2
:107ADB00900190E0900194F0900191E0FF9001945F
:107AEB00E0FEC3EF6480F8EE6480984003027C01F3
:107AFB00A3E0FF3395E0FEC374079FFFE49EFE9067
:107B0B0000F7E0FBA3E0FAA3E0F98F828E8312C8A3
:107B1B00C7FD7C00900194E0FF74807E00A80708ED
:107B2B008006CEA2E713CE13D8F8FFEE5CFEEF5D16
:107B3B004E605C9000FBE0FF3395E0FE900195E01A
:107B4B00FD3395E0FCED2FFFEC3EFEEF7803C333E6
:107B5B00CE33CED8F9FF9000FCE0FD3395E04EFE1E
:107B6B00EF4DFF9000F4E0FBA3E0FAA3E02FF9EA5E
:107B7B003EFA12C8AEFF9000FAE0FE900194E02EA0
:107B8B00FE7480A806088002C313D8FC4F805B905C
:107B9B0000FBE0FF3395E0FE900195E0FD3395E0AF
:107BAB00FCED2FFFEC3EFEEF7803C333CE33CED884
:107BBB00F9FF9000FCE0FD3395E04EFEEF4DFF909A
:107BCB0000F4E0FBA3E0FAA3E02FF9EA3EFA12C8B7
:107BDB00AEFF9000FAE0FE900194E02EFE7480A8B8
:107BEB0006088002C313D8FCF45F12C8F49001940A
:107BFB00E004F0027AE3900195E004F0027AC3907E
:107C0B0000FEE06003027CFE900192E0900195F093
:107C1B00900193E0FF900195E0FEC3EF6480F8EED6
:107C2B00648098400302B618900190E0900194F0A4
:107C3B00900191E0FF900194E0FEC3EF6480F8EEB9
:107C4B006480984003027CF59000F7E0FBA3E0FA18
:107C5B00A3E0F9900195E0FF3395E08F82F5831255
:107C6B00C8C7FD7C00900194E0FF74807E00A807DC
:107C7B00088006CEA2E713CE13D8F8FFEE5CFEEF1A
:107C8B005D4E605D9000FBE0FF3395E0FE9001954B
:107C9B00E0FD3395E0FCED2FFFEC3EFEEF7803C3E8
:107CAB0033CE33CED8F9FF9000FCE0FD3395E04E98
:107CBB00FEEF4DFF9000F4E0FBA3E0FAA3E02FF9F9
:107CCB00EA3EFA12C8AEFF9000FAE0FE900194E093
:107CDB002EFE7480A806088002C313D8FC4F12C86E
:107CEB00F4900194E004F0027C3B900195E004F0E9
:107CFB00027C1B9000FEE064016003027DF59001A5
:107D0B0092E0900195F0900193E0FF900195E0FED9
:107D1B00C3EF6480F8EE648098400302B6189001BC
:107D2B0090E0900194F0900191E0FF900194E0FEBF
:107D3B00C3EF6480F8EE6480984003027DEC900002
:107D4B00F7E0FBA3E0FAA3E0F9900195E0FF339590
:107D5B00E08F82F58312C8C7FD7C00900194E0FF91
:107D6B0074807E00A807088006CEA2E713CE13D836
:107D7B00F8FFEE5CFEEF5D4E605E9000FBE0FF33C4
:107D8B0095E0FE900195E0FD3395E0FCED2FFFECC7
:107D9B003EFEEF7803C333CE33CED8F9FF9000FC11
:107DAB00E0FD3395E04EFEEF4DFF9000F4E0FBA3BA
:107DBB00E0FAA3E02FF9EA3EFA12C8AEFF9000FA00
:107DCB00E0FE900194E02EFE7480A806088002C3AA
:107DDB0013D8FCF45F12C8F4900194E004F0027D18
:107DEB0031900195E004F0027D119000FEE06402F9
:107DFB006003027EEB900192E0900195F09001936D
:107E0B00E0FF900195E0FEC3EF6480F8EE6480988C
:107E1B00400302B618900190E0900194F09001910C
:107E2B00E0FF900194E0FEC3EF6480F8EE6480986D
:107E3B004003027EE29000F7E0FBA3E0FAA3E0F937
:107E4B00900195E0FF3395E08F82F58312C8C7FD53
:107E5B007C00900194E0FF74807E00A807088006E8
:107E6B00CEA2E713CE13D8F8FFEE5CFEEF5D4E60AB
:107E7B005D9000FBE0FF3395E0FE900195E0FD3354
:107E8B0095E0FCED2FFFEC3EFEEF7803C333CE33D2
:107E9B00CED8F9FF9000FCE0FD3395E04EFEEF4DA0
:107EAB00FF9000F4E0FBA3E0FAA3E02FF9EA3EFA1F
:107EBB0012C8AEFF9000FAE0FE900194E02EFE7423
:107ECB0080A806088002C313D8FC6F12C8F4900177
:107EDB0094E004F0027E28900195E004F0027E0805
:107EEB009000FEE06403600302B618900192E090EC
:107EFB000195F0900193E0FF900195E0FEC3EF64D4
:107F0B0080F8EE648098400302B618900190E090E0
:107F1B000194F0900191E0FF900194E0FEC3EF64B7
:107F2B0080F8EE64809840030280359000F7E0FB08
:107F3B00A3E0FAA3E0F9900195E0FF3395E08F827F
:107F4B00F58312C8C7FD7C00900194E0FF74807E1E
:107F5B0000A807088006CEA2E713CE13D8F8FFEED1
:107F6B005CFEEF5D4E605C9000FBE0FF3395E0FE46
:107F7B00900195E0FD3395E0FCED2FFFEC3EFEEF1D
:107F8B007803C333CE33CED8F9FF9000FCE0FD333A
:107F9B0095E04EFEEF4DFF9000F4E0FBA3E0FAA35B
:107FAB00E02FF9EA3EFA12C8AEFF9000FAE0FE901D
:107FBB000194E02EFE7480A806088002C313D8FC3F
:107FCB004F805B9000FBE0FF3395E0FE900195E066
:107FDB00FD3395E0FCED2FFFEC3EFEEF7803C33352
:107FEB00CE33CED8F9FF9000FCE0FD3395E04EFE8A
:107FFB00EF4DFF9000F4E0FBA3E0FAA3E02FF9EACA
:10800B003EFA12C8AEFF9000FAE0FE900194E02E0B
:10801B00FE7480A806088002C313D8FCF45F12C854
:10802B00F4900194E004F0027F1E900195E004F0BF
:10803B00027EFE9000FDE064016003029AC0900096
:10804B00FFE0640160030284909000FEE060030295
:10805B008148900192E0900195F0900193E0FF90A0
:10806B000195E0FEC3EF6480F8EE64809840030254
:10807B00B618900190E0900194F0900191E0FF9080
:10808B000194E0FEC3EF6480F8EE64809840030235
:10809B00813F9000F7E0FBA3E0FAA3E0F9EEFF339A
:1080AB0095E08F82F58312C8C7FD7C00900195E0A7
:1080BB00FB74017E00A803088005C333CE33CED8F2
:1080CB00F9FFEE5CFEEF5D4E60619000FCE0FF336C
:1080DB0095E0FEC374079FFFE49EFEEF7803C33366
:1080EB00CE33CED8F9FF9000FBE0FD3395E0FCEBEF
:1080FB003395E0FAEB2DFDEA3C4EFEED4FFF900081
:10810B00F4E0FBA3E0FAA3E02FF9EA3EFA12C8AEC3
:10811B00FF9000FAE0FE900194E02EFE7480A8061A
:10812B00088002C313D8FC4F12C8F4900194E004EA
:10813B00F0028085900195E004F00280659000FECE
:10814B00E06401600302823F900192E0900195F0A0
:10815B00900193E0FF900195E0FEC3EF6480F8EE91
:10816B00648098400302B618900190E0900194F05F
:10817B00900191E0FF900194E0FEC3EF6480F8EE74
:10818B0064809840030282369000F7E0FBA3E0FA8C
:10819B00A3E0F9EEFF3395E08F82F58312C8C7FD9C
:1081AB007C00900195E0FB74017E00A8030880051C
:1081BB00C333CE33CED8F9FFEE5CFEEF5D4E60627B
:1081CB009000FCE0FF3395E0FEC374079FFFE49E35
:1081DB00FEEF7803C333CE33CED8F9FF9000FBE02C
:1081EB00FD3395E0FCEB3395E0FAEB2DFDEA3C4ECD
:1081FB00FEED4FFF9000F4E0FBA3E0FAA3E02FF9B4
:10820B00EA3EFA12C8AEFF9000FAE0FE900194E04D
:10821B002EFE7480A806088002C313D8FCF45F12EC
:10822B00C8F4900194E004F002817B900195E00486
:10823B00F002815B9000FEE06402600302833590E4
:10824B000192E0900195F0900193E0FF900195E091
:10825B00FEC3EF6480F8EE648098400302B618907A
:10826B000190E0900194F0900191E0FF900194E077
:10827B00FEC3EF6480F8EE648098400302832C9079
:10828B0000F7E0FBA3E0FAA3E0F9EEFF3395E08FF4
:10829B0082F58312C8C7FD7C00900195E0FB740149
:1082AB007E00A803088005C333CE33CED8F9FFEE8A
:1082BB005CFEEF5D4E60619000FCE0FF3395E0FEED
:1082CB00C374079FFFE49EFEEF7803C333CE33CE18
:1082DB00D8F9FF9000FBE0FD3395E0FCEB3395E024
:1082EB00FAEB2DFDEA3C4EFEED4FFF9000F4E0FB68
:1082FB00A3E0FAA3E02FF9EA3EFA12C8AEFF900012
:10830B00FAE0FE900194E02EFE7480A8060880022D
:10831B00C313D8FC6F12C8F4900194E004F00282EE
:10832B0072900195E004F00282529000FEE064032B
:10833B00600302B618900192E0900195F0900193C2
:10834B00E0FF900195E0FEC3EF6480F8EE64809847
:10835B00400302B618900190E0900194F0900191C7
:10836B00E0FF900194E0FEC3EF6480F8EE64809828
:10837B0040030284879000F7E0FBA3E0FAA3E0F947
:10838B00EEFF3395E08F82F58312C8C7FD7C00901A
:10839B000195E0FB74017E00A803088005C333CE72
:1083AB0033CED8F9FFEE5CFEEF5D4E60609000FCC3
:1083BB00E0FF3395E0FEC374079FFFE49EFEEF786A
:1083CB0003C333CE33CED8F9FF9000FBE0FD3395DA
:1083DB00E0FCEB3395E0FAEB2DFDEA3C4EFEED4F66
:1083EB00FF9000F4E0FBA3E0FAA3E02FF9EA3EFADA
:1083FB0012C8AEFF9000FAE0FE900194E02EFE74DE
:10840B0080A806088002C313D8FC4F80639000FC41
:10841B00E0FF3395E0FEC374079FFFE49EFEEF7809
:10842B0003C333CE33CED8F9FF9000FBE0FD339579
:10843B00E0FC900195E0FB3395E0FAEB2DFDEA3C77
:10844B004EFEED4FFF9000F4E0FBA3E0FAA3E02F0C
:10845B00F9EA3EFA12C8AEFF9000FAE0FE900194E2
:10846B00E02EFE7480A806088002C313D8FCF45FCC
:10847B0012C8F4900194E004F0028368900195E037
:10848B0004F00283489000FFE06402600302890F4E
:10849B009000FEE0600302859D900192E0900195B3
:1084AB00F0900193E0FF900195E0FEC3EF6480F83C
:1084BB00EE648098400302B618900190E09001940E
:1084CB00F0900191E0FF900194E0FEC3EF6480F81F
:1084DB00EE6480984003028594A3E0FF3395E0FEA1
:1084EB00C374079FFFE49EFE9000F7E0FBA3E0FA46
:1084FB00A3E0F98F828E8312C8C7FD7C0090019494
:10850B00E0FF74017E00A807088005C333CE33CE8D
:10851B00D8F9FFEE5CFEEF5D4E60659000FCE0FF6E
:10852B003395E0FEC374079FFFE49EFEEF7803C311
:10853B0033CE33CED8F9FF9000FBE0FD3395E0FC52
:10854B00900195E0FB3395E0FAEB2DFDEA3C4EFEF6
:10855B00ED4FFF9000F4E0FBA3E0FAA3E02FF9EA64
:10856B003EFA12C8AEFF9000FAE0FE900194E02EA6
:10857B00FE7480A806088002C313D8FC4F12C8F4FF
:10858B00900194E004F00284CC900195E004F00299
:10859B0084AC9000FEE0640160030286A29001921D
:1085AB00E0900195F0900193E0FF900195E0FEC300
:1085BB00EF6480F8EE648098400302B61890019047
:1085CB00E0900194F0900191E0FF900194E0FEC3E4
:1085DB00EF6480F8EE6480984003028699A3E0FF75
:1085EB003395E0FEC374079FFFE49EFE9000F7E017
:1085FB00FBA3E0FAA3E0F98F828E8312C8C7FD7C40
:10860B0000900194E0FF74017E00A807088005C369
:10861B0033CE33CED8F9FFEE5CFEEF5D4E60669045
:10862B0000FCE0FF3395E0FEC374079FFFE49EFE62
:10863B00EF7803C333CE33CED8F9FF9000FBE0FDC8
:10864B003395E0FC900195E0FB3395E0FAEB2DFDC3
:10865B00EA3C4EFEED4FFF9000F4E0FBA3E0FAA3E3
:10866B00E02FF9EA3EFA12C8AEFF9000FAE0FE9056
:10867B000194E02EFE7480A806088002C313D8FC78
:10868B00F45F12C8F4900194E004F00285D09001DD
:10869B0095E004F00285B09000FEE06402600302F6
:1086AB0087A6900192E0900195F0900193E0FF90E6
:1086BB000195E0FEC3EF6480F8EE648098400302FE
:1086CB00B618900190E0900194F0900191E0FF902A
:1086DB000194E0FEC3EF6480F8EE648098400302DF
:1086EB00879DA3E0FF3395E0FEC374079FFFE49ED5
:1086FB00FE9000F7E0FBA3E0FAA3E0F98F828E83F4
:10870B0012C8C7FD7C00900194E0FF74017E00A8A5
:10871B0007088005C333CE33CED8F9FFEE5CFEEFEE
:10872B005D4E60659000FCE0FF3395E0FEC374077F
:10873B009FFFE49EFEEF7803C333CE33CED8F9FF11
:10874B009000FBE0FD3395E0FC900195E0FB339549
:10875B00E0FAEB2DFDEA3C4EFEED4FFF9000F4E00E
:10876B00FBA3E0FAA3E02FF9EA3EFA12C8AEFF90A2
:10877B0000FAE0FE900194E02EFE7480A8060880BB
:10878B0002C313D8FC6F12C8F4900194E004F002FA
:10879B0086D5900195E004F00286B59000FEE0646A
:1087AB0003600302B618900192E0900195F09001DE
:1087BB0093E0FF900195E0FEC3EF6480F8EE6480D8
:1087CB0098400302B618900190E0900194F090014C
:1087DB0091E0FF900194E0FEC3EF6480F8EE6480BB
:1087EB00984003028906A3E0FF3395E0FEC37407AC
:1087FB009FFFE49EFE9000F7E0FBA3E0FAA3E0F9F5
:10880B008F828E8312C8C7FD7C00900194E0FF74A9
:10881B00017E00A807088005C333CE33CED8F9FFFD
:10882B00EE5CFEEF5D4E60649000FCE0FF3395E084
:10883B00FEC374079FFFE49EFEEF7803C333CE3372
:10884B00CED8F9FF9000FBE0FD3395E0FC9001954D
:10885B00E0FB3395E0FAEB2DFDEA3C4EFEED4FFFCE
:10886B009000F4E0FBA3E0FAA3E02FF9EA3EFA1242
:10887B00C8AEFF9000FAE0FE900194E02EFE7480EB
:10888B00A806088002C313D8FC4F80639000FCE05D
:10889B00FF3395E0FEC374079FFFE49EFEEF780362
:1088AB00C333CE33CED8F9FF9000FBE0FD3395E018
:1088BB00FC900195E0FB3395E0FAEB2DFDEA3C4E85
:1088CB00FEED4FFF9000F4E0FBA3E0FAA3E02FF9DD
:1088DB00EA3EFA12C8AEFF9000FAE0FE900194E077
:1088EB002EFE7480A806088002C313D8FCF45F1216
:1088FB00C8F4900194E004F00287D9900195E0044C
:10890B00F00287B99000FFE064036003028D7E9054
:10891B0000FEE06003028A18900192E0900195F04E
:10892B00900193E0FF900195E0FEC3EF6480F8EEB9
:10893B00648098400302B618900190E0900194F087
:10894B00900191E0FF900194E0FEC3EF6480F8EE9C
:10895B006480984003028A0FEEFF3395E0FEC374E8
:10896B00079FFFE49EFE9000F7E0FBA3E0FAA3E075
:10897B00F98F828E8312C8C7FD7C00900195E0FBB6
:10898B0074807E00A803088006CEA2E713CE13D80E
:10899B00F8FFEE5CFEEF5D4E60619000FCE0FF3394
:1089AB0095E0FEC374079FFFE49EFEEF7803C3338D
:1089BB00CE33CED8F9FF9000FBE0FD3395E0FCEB16
:1089CB003395E0FAEB2DFDEA3C4EFEED4FFF9000A8
:1089DB00F4E0FBA3E0FAA3E02FF9EA3EFA12C8AEEB
:1089EB00FF9000FAE0FE900194E02EFE7480A80642
:1089FB00088002C313D8FC4F12C8F4900194E00412
:108A0B00F002894B900195E004F002892B9000FE57
:108A1B00E064016003028B19900192E0900195F0E4
:108A2B00900193E0FF900195E0FEC3EF6480F8EEB8
:108A3B00648098400302B618900190E0900194F086
:108A4B00900191E0FF900194E0FEC3EF6480F8EE9B
:108A5B006480984003028B10EEFF3395E0FEC374E5
:108A6B00079FFFE49EFE9000F7E0FBA3E0FAA3E074
:108A7B00F98F828E8312C8C7FD7C00900195E0FBB5
:108A8B0074807E00A803088006CEA2E713CE13D80D
:108A9B00F8FFEE5CFEEF5D4E60629000FCE0FF3392
:108AAB0095E0FEC374079FFFE49EFEEF7803C3338C
:108ABB00CE33CED8F9FF9000FBE0FD3395E0FCEB15
:108ACB003395E0FAEB2DFDEA3C4EFEED4FFF9000A7
:108ADB00F4E0FBA3E0FAA3E02FF9EA3EFA12C8AEEA
:108AEB00FF9000FAE0FE900194E02EFE7480A80641
:108AFB00088002C313D8FCF45F12C8F4900194E011
:108B0B0004F0028A4B900195E004F0028A2B90004E
:108B1B00FEE064026003028C19900192E0900195D3
:108B2B00F0900193E0FF900195E0FEC3EF6480F8B5
:108B3B00EE648098400302B618900190E090019487
:108B4B00F0900191E0FF900194E0FEC3EF6480F898
:108B5B00EE6480984003028C10EEFF3395E0FEC369
:108B6B0074079FFFE49EFE9000F7E0FBA3E0FAA3DF
:108B7B00E0F98F828E8312C8C7FD7C00900195E0CF
:108B8B00FB74807E00A803088006CEA2E713CE13E9
:108B9B00D8F8FFEE5CFEEF5D4E60619000FCE0FFED
:108BAB003395E0FEC374079FFFE49EFEEF7803C38B
:108BBB0033CE33CED8F9FF9000FBE0FD3395E0FCCC
:108BCB00EB3395E0FAEB2DFDEA3C4EFEED4FFF90BB
:108BDB0000F4E0FBA3E0FAA3E02FF9EA3EFA12C897
:108BEB00AEFF9000FAE0FE900194E02EFE7480A898
:108BFB0006088002C313D8FC6F12C8F4900194E0EE
:108C0B0004F0028B4C900195E004F0028B2C900049
:108C1B00FEE06403600302B618900192E0900195A8
:108C2B00F0900193E0FF900195E0FEC3EF6480F8B4
:108C3B00EE648098400302B618900190E090019486
:108C4B00F0900191E0FF900194E0FEC3EF6480F897
:108C5B00EE6480984003028D75EEFF3395E0FEC302
:108C6B0074079FFFE49EFE9000F7E0FBA3E0FAA3DE
:108C7B00E0F98F828E8312C8C7FD7C00900195E0CE
:108C8B00FB74807E00A803088006CEA2E713CE13E8
:108C9B00D8F8FFEE5CFEEF5D4E60609000FCE0FFED
:108CAB003395E0FEC374079FFFE49EFEEF7803C38A
:108CBB0033CE33CED8F9FF9000FBE0FD3395E0FCCB
:108CCB00EB3395E0FAEB2DFDEA3C4EFEED4FFF90BA
:108CDB0000F4E0FBA3E0FAA3E02FF9EA3EFA12C896
:108CEB00AEFF9000FAE0FE900194E02EFE7480A897
:108CFB0006088002C313D8FC4F80639000FCE0FF92
:108D0B003395E0FEC374079FFFE49EFEEF7803C329
:108D1B0033CE33CED8F9FF9000FBE0FD3395E0FC6A
:108D2B00900195E0FB3395E0FAEB2DFDEA3C4EFE0E
:108D3B00ED4FFF9000F4E0FBA3E0FAA3E02FF9EA7C
:108D4B003EFA12C8AEFF9000FAE0FE900194E02EBE
:108D5B00FE7480A806088002C313D8FCF45F12C807
:108D6B00F4900194E004F0028C4C900195E004F037
:108D7B00028C2C9000FFE0640460030291E19000F0
:108D8B00FEE06003028E84900192E0900195F090DA
:108D9B000193E0FF900195E0FEC3EF6480F8EE6471
:108DAB008098400302B618900190E0900194F090E7
:108DBB000191E0FF900194E0FEC3EF6480F8EE6454
:108DCB0080984003028E7B9000F7E0FBA3E0FAA3B0
:108DDB00E0F9900195E0FF3395E08F82F58312C89F
:108DEB00C7FD7C00900194E0FF74017E00A807088A
:108DFB008005C333CE33CED8F9FFEE5CFEEF5D4E6C
:108E0B0060659000FCE0FF3395E0FEC374079FFFA5
:108E1B00E49EFEEF7803C333CE33CED8F9FF900038
:108E2B00FBE0FD3395E0FC900195E0FB3395E0FA18
:108E3B00EB2DFDEA3C4EFEED4FFF9000F4E0FBA363
:108E4B00E0FAA3E02FF9EA3EFA12C8AEFF9000FA5F
:108E5B00E0FE900194E02EFE7480A806088002C309
:108E6B0013D8FC4F12C8F4900194E004F0028DBAB1
:108E7B00900195E004F0028D9A9000FEE064016091
:108E8B0003028F82900192E0900195F0900193E0A4
:108E9B00FF900195E0FEC3EF6480F8EE648098408C
:108EAB000302B618900190E0900194F0900191E0CC
:108EBB00FF900194E0FEC3EF6480F8EE648098406D
:108ECB0003028F799000F7E0FBA3E0FAA3E0F9909F
:108EDB000195E0FF3395E08F82F58312C8C7FD7CC7
:108EEB0000900194E0FF74017E00A807088005C381
:108EFB0033CE33CED8F9FFEE5CFEEF5D4E6066905D
:108F0B0000FCE0FF3395E0FEC374079FFFE49EFE79
:108F1B00EF7803C333CE33CED8F9FF9000FBE0FDDF
:108F2B003395E0FC900195E0FB3395E0FAEB2DFDDA
:108F3B00EA3C4EFEED4FFF9000F4E0FBA3E0FAA3FA
:108F4B00E02FF9EA3EFA12C8AEFF9000FAE0FE906D
:108F5B000194E02EFE7480A806088002C313D8FC8F
:108F6B00F45F12C8F4900194E004F0028EB7900104
:108F7B0095E004F0028E979000FEE064026003021D
:108F8B00907F900192E0900195F0900193E0FF901B
:108F9B000195E0FEC3EF6480F8EE64809840030215
:108FAB00B618900190E0900194F0900191E0FF9041
:108FBB000194E0FEC3EF6480F8EE648098400302F6
:108FCB0090769000F7E0FBA3E0FAA3E0F99001950F
:108FDB00E0FF3395E08F82F58312C8C7FD7C0090CC
:108FEB000194E0FF74017E00A807088005C333CE0F
:108FFB0033CED8F9FFEE5CFEEF5D4E60659000FC62
:10900B00E0FF3395E0FEC374079FFFE49EFEEF780D
:10901B0003C333CE33CED8F9FF9000FBE0FD33957D
:10902B00E0FC900195E0FB3395E0FAEB2DFDEA3C7B
:10903B004EFEED4FFF9000F4E0FBA3E0FAA3E02F10
:10904B00F9EA3EFA12C8AEFF9000FAE0FE900194E6
:10905B00E02EFE7480A806088002C313D8FC6F12A2
:10906B00C8F4900194E004F0028FB5900195E004F0
:10907B00F0028F959000FEE06403600302B6189037
:10908B000192E0900195F0900193E0FF900195E043
:10909B00FEC3EF6480F8EE648098400302B618902C
:1090AB000190E0900194F0900191E0FF900194E029
:1090BB00FEC3EF6480F8EE64809840030291D89071
:1090CB0000F7E0FBA3E0FAA3E0F9900195E0FF3392
:1090DB0095E08F82F58312C8C7FD7C00900194E068
:1090EB00FF74017E00A807088005C333CE33CED8AA
:1090FB00F9FFEE5CFEEF5D4E60649000FCE0FF3329
:10910B0095E0FEC374079FFFE49EFEEF7803C33325
:10911B00CE33CED8F9FF9000FBE0FD3395E0FC9009
:10912B000195E0FB3395E0FAEB2DFDEA3C4EFEEDAD
:10913B004FFF9000F4E0FBA3E0FAA3E02FF9EA3E27
:10914B00FA12C8AEFF9000FAE0FE900194E02EFEFA
:10915B007480A806088002C313D8FC4F806390006C
:10916B00FCE0FF3395E0FEC374079FFFE49EFEEF28
:10917B007803C333CE33CED8F9FF9000FBE0FD3339
:10918B0095E0FC900195E0FB3395E0FAEB2DFDEAC1
:10919B003C4EFEED4FFF9000F4E0FBA3E0FAA3E0A2
:1091AB002FF9EA3EFA12C8AEFF9000FAE0FE9001EA
:1091BB0094E02EFE7480A806088002C313D8FCF43A
:1091CB005F12C8F4900194E004F00290B290019504
:1091DB00E004F00290929000FFE0640560030296B9
:1091EB00649000FEE060030292EF900192E0900128
:1091FB0095F0900193E0FF900195E0FEC3EF648042
:10920B00F8EE648098400302B618900190E090014C
:10921B0094F0900191E0FF900194E0FEC3EF648025
:10922B00F8EE64809840030292E6A3E0FF3395E0EA
:10923B00FEC374079FFFE49EFE9000F7E0FBA3E0E4
:10924B00FAA3E0F98F828E8312C8C7FD7C009001D0
:10925B0094E0FF74807E00A807088006CEA2E71377
:10926B00CE13D8F8FFEE5CFEEF5D4E60659000FC10
:10927B00E0FF3395E0FEC374079FFFE49EFEEF789B
:10928B0003C333CE33CED8F9FF9000FBE0FD33950B
:10929B00E0FC900195E0FB3395E0FAEB2DFDEA3C09
:1092AB004EFEED4FFF9000F4E0FBA3E0FAA3E02F9E
:1092BB00F9EA3EFA12C8AEFF9000FAE0FE90019474
:1092CB00E02EFE7480A806088002C313D8FC4F1250
:1092DB00C8F4900194E004F002921D900195E00413
:1092EB00F00291FD9000FEE0640160030293F590A3
:1092FB000192E0900195F0900193E0FF900195E0D1
:10930B00FEC3EF6480F8EE648098400302B61890B9
:10931B000190E0900194F0900191E0FF900194E0B6
:10932B00FEC3EF6480F8EE64809840030293ECA3D5
:10933B00E0FF3395E0FEC374079FFFE49EFE9000B1
:10934B00F7E0FBA3E0FAA3E0F98F828E8312C8C784
:10935B00FD7C00900194E0FF74807E00A8070880DC
:10936B0006CEA2E713CE13D8F8FFEE5CFEEF5D4EF0
:10937B0060669000FCE0FF3395E0FEC374079FFF2F
:10938B00E49EFEEF7803C333CE33CED8F9FF9000C3
:10939B00FBE0FD3395E0FC900195E0FB3395E0FAA3
:1093AB00EB2DFDEA3C4EFEED4FFF9000F4E0FBA3EE
:1093BB00E0FAA3E02FF9EA3EFA12C8AEFF9000FAEA
:1093CB00E0FE900194E02EFE7480A806088002C394
:1093DB0013D8FCF45F12C8F4900194E004F00293EC
:1093EB0022900195E004F00293029000FEE06402EB
:1093FB0060030294FA900192E0900195F090019332
:10940B00E0FF900195E0FEC3EF6480F8EE64809876
:10941B00400302B618900190E0900194F0900191F6
:10942B00E0FF900194E0FEC3EF6480F8EE64809857
:10943B0040030294F1A3E0FF3395E0FEC374079F52
:10944B00FFE49EFE9000F7E0FBA3E0FAA3E0F98FA8
:10945B00828E8312C8C7FD7C00900194E0FF74805C
:10946B007E00A807088006CEA2E713CE13D8F8FF1C
:10947B00EE5CFEEF5D4E60659000FCE0FF3395E027
:10948B00FEC374079FFFE49EFEEF7803C333CE3316
:10949B00CED8F9FF9000FBE0FD3395E0FC900195F1
:1094AB00E0FB3395E0FAEB2DFDEA3C4EFEED4FFF72
:1094BB009000F4E0FBA3E0FAA3E02FF9EA3EFA12E6
:1094CB00C8AEFF9000FAE0FE900194E02EFE74808F
:1094DB00A806088002C313D8FC6F12C8F49001943D
:1094EB00E004F0029428900195E004F002940890B7
:1094FB0000FEE06403600302B618900192E0900155
:10950B0095F0900193E0FF900195E0FEC3EF64802E
:10951B00F8EE648098400302B618900190E0900139
:10952B0094F0900191E0FF900194E0FEC3EF648012
:10953B00F8EE648098400302965BA3E0FF3395E05E
:10954B00FEC374079FFFE49EFE9000F7E0FBA3E0D1
:10955B00FAA3E0F98F828E8312C8C7FD7C009001BD
:10956B0094E0FF74807E00A807088006CEA2E71364
:10957B00CE13D8F8FFEE5CFEEF5D4E60649000FCFE
:10958B00E0FF3395E0FEC374079FFFE49EFEEF7888
:10959B0003C333CE33CED8F9FF9000FBE0FD3395F8
:1095AB00E0FC900195E0FB3395E0FAEB2DFDEA3CF6
:1095BB004EFEED4FFF9000F4E0FBA3E0FAA3E02F8B
:1095CB00F9EA3EFA12C8AEFF9000FAE0FE90019461
:1095DB00E02EFE7480A806088002C313D8FC4F80CF
:1095EB00639000FCE0FF3395E0FEC374079FFFE43C
:1095FB009EFEEF7803C333CE33CED8F9FF9000FB3A
:10960B00E0FD3395E0FC900195E0FB3395E0FAEB40
:10961B002DFDEA3C4EFEED4FFF9000F4E0FBA3E086
:10962B00FAA3E02FF9EA3EFA12C8AEFF9000FAE077
:10963B00FE900194E02EFE7480A806088002C313EE
:10964B00D8FCF45F12C8F4900194E004F002952D5D
:10965B00900195E004F002950D9000FEE06003028E
:10966B009760900192E0900195F0900193E0FF904C
:10967B000195E0FEC3EF6480F8EE6480984003022E
:10968B00B618900190E0900194F0900191E0FF905A
:10969B000194E0FEC3EF6480F8EE6480984003020F
:1096AB0097579000F7E0FBA3E0FAA3E0F990019540
:1096BB00E0FF3395E08F82F58312C8C7FD7C0090E5
:1096CB000194E0FF74807E00A807088006CEA2E715
:1096DB0013CE13D8F8FFEE5CFEEF5D4E6065900085
:1096EB00FCE0FF3395E0FEC374079FFFE49EFEEFA3
:1096FB007803C333CE33CED8F9FF9000FBE0FD33B4
:10970B0095E0FC900195E0FB3395E0FAEB2DFDEA3B
:10971B003C4EFEED4FFF9000F4E0FBA3E0FAA3E01C
:10972B002FF9EA3EFA12C8AEFF9000FAE0FE900164
:10973B0094E02EFE7480A806088002C313D8FC4F59
:10974B0012C8F4900194E004F0029695900195E014
:10975B0004F00296759000FEE06401600302985FCE
:10976B00900192E0900195F0900193E0FF900195AC
:10977B00E0FEC3EF6480F8EE648098400302B618F5
:10978B00900190E0900194F0900191E0FF90019492
:10979B00E0FEC3EF6480F8EE6480984003029856B5
:1097AB009000F7E0FBA3E0FAA3E0F9900195E0FF4E
:1097BB003395E08F82F58312C8C7FD7C009001942E
:1097CB00E0FF74807E00A807088006CEA2E713CEC8
:1097DB0013D8F8FFEE5CFEEF5D4E60669000FCE088
:1097EB00FF3395E0FEC374079FFFE49EFEEF780303
:1097FB00C333CE33CED8F9FF9000FBE0FD3395E0B9
:10980B00FC900195E0FB3395E0FAEB2DFDEA3C4E25
:10981B00FEED4FFF9000F4E0FBA3E0FAA3E02FF97D
:10982B00EA3EFA12C8AEFF9000FAE0FE900194E017
:10983B002EFE7480A806088002C313D8FCF45F12B6
:10984B00C8F4900194E004F0029793900195E00422
:10985B00F00297739000FEE06402600302995D9042
:10986B000192E0900195F0900193E0FF900195E05B
:10987B00FEC3EF6480F8EE648098400302B6189044
:10988B000190E0900194F0900191E0FF900194E041
:10989B00FEC3EF6480F8EE64809840030299549005
:1098AB0000F7E0FBA3E0FAA3E0F9900195E0FF33AA
:1098BB0095E08F82F58312C8C7FD7C00900194E080
:1098CB00FF74807E00A807088006CEA2E713CE1394
:1098DB00D8F8FFEE5CFEEF5D4E60659000FCE0FF9C
:1098EB003395E0FEC374079FFFE49EFEEF7803C33E
:1098FB0033CE33CED8F9FF9000FBE0FD3395E0FC7F
:10990B00900195E0FB3395E0FAEB2DFDEA3C4EFE22
:10991B00ED4FFF9000F4E0FBA3E0FAA3E02FF9EA90
:10992B003EFA12C8AEFF9000FAE0FE900194E02ED2
:10993B00FE7480A806088002C313D8FC6F12C8F40B
:10994B00900194E004F0029892900195E004F002EB
:10995B0098729000FEE06403600302B618900192C7
:10996B00E0900195F0900193E0FF900195E0FEC32C
:10997B00EF6480F8EE648098400302B61890019073
:10998B00E0900194F0900191E0FF900194E0FEC310
:10999B00EF6480F8EE6480984003029AB79000F76A
:1099AB00E0FBA3E0FAA3E0F9900195E0FF3395E02B
:1099BB008F82F58312C8C7FD7C00900194E0FF7481
:1099CB00807E00A807088006CEA2E713CE13D8F836
:1099DB00FFEE5CFEEF5D4E60649000FCE0FF3395A4
:1099EB00E0FEC374079FFFE49EFEEF7803C333CE04
:1099FB0033CED8F9FF9000FBE0FD3395E0FC9001EE
:109A0B0095E0FB3395E0FAEB2DFDEA3C4EFEED4F76
:109A1B00FF9000F4E0FBA3E0FAA3E02FF9EA3EFA93
:109A2B0012C8AEFF9000FAE0FE900194E02EFE7497
:109A3B0080A806088002C313D8FC4F80639000FCFB
:109A4B00E0FF3395E0FEC374079FFFE49EFEEF78C3
:109A5B0003C333CE33CED8F9FF9000FBE0FD339533
:109A6B00E0FC900195E0FB3395E0FAEB2DFDEA3C31
:109A7B004EFEED4FFF9000F4E0FBA3E0FAA3E02FC6
:109A8B00F9EA3EFA12C8AEFF9000FAE0FE9001949C
:109A9B00E02EFE7480A806088002C313D8FCF45F86
:109AAB0012C8F4900194E004F0029990900195E0B3
:109ABB0004F00299709000FDE06402600302B61896
:109ACB009000FFE064016003029F439000FEE060A2
:109ADB0003029BD4900192E0900195F0900193E0EA
:109AEB00FF900195E0FEC3EF6480F8EE6480984030
:109AFB000302B618900190E0900194F0900191E070
:109B0B00FF900194E0FEC3EF6480F8EE6480984010
:109B1B0003029BCB9000F7E0FBA3E0FAA3E0F9EE86
:109B2B00FF3395E08F82F58312C8C7FD7C0090014F
:109B3B0095E0FB74017E00A803088005C333CE3388
:109B4B00CED8F9FFEE5CFEEF5D4E606B9000FBE054
:109B5B00FF3395E0FEEBFD3395E0FCED2FFFEC3E84
:109B6B00FEEF7803C333CE33CED8F9FF9000FAE083
:109B7B00FD3395E0FC900194E0FB3395E0FAEB2D7F
:109B8B00FDEA3CFCC374079DFDE49C4EFEED4FFFCC
:109B9B009000F4E0FBA3E0FAA3E02FF9EA3EFA12FF
:109BAB00C8AEFF9000FCE0FE7480A806088002C3DC
:109BBB0013D8FC4F12C8F4900194E004F0029B07F9
:109BCB00900195E004F0029AE79000FEE0640160DA
:109BDB0003029CD5900192E0900195F0900193E0E7
:109BEB00FF900195E0FEC3EF6480F8EE648098402F
:109BFB000302B618900190E0900194F0900191E06F
:109C0B00FF900194E0FEC3EF6480F8EE648098400F
:109C1B0003029CCC9000F7E0FBA3E0FAA3E0F9EE83
:109C2B00FF3395E08F82F58312C8C7FD7C0090014E
:109C3B0095E0FB74017E00A803088005C333CE3387
:109C4B00CED8F9FFEE5CFEEF5D4E606C9000FBE052
:109C5B00FF3395E0FEEBFD3395E0FCED2FFFEC3E83
:109C6B00FEEF7803C333CE33CED8F9FF9000FAE082
:109C7B00FD3395E0FC900194E0FB3395E0FAEB2D7E
:109C8B00FDEA3CFCC374079DFDE49C4EFEED4FFFCB
:109C9B009000F4E0FBA3E0FAA3E02FF9EA3EFA12FE
:109CAB00C8AEFF9000FCE0FE7480A806088002C3DB
:109CBB0013D8FCF45F12C8F4900194E004F0029CFA
:109CCB0007900195E004F0029BE79000FEE0640230
:109CDB006003029DD5900192E0900195F090019365
:109CEB00E0FF900195E0FEC3EF6480F8EE6480988E
:109CFB00400302B618900190E0900194F09001910E
:109D0B00E0FF900194E0FEC3EF6480F8EE6480986E
:109D1B004003029DCC9000F7E0FBA3E0FAA3E0F92F
:109D2B00EEFF3395E08F82F58312C8C7FD7C009060
:109D3B000195E0FB74017E00A803088005C333CEB8
:109D4B0033CED8F9FFEE5CFEEF5D4E606B9000FBFF
:109D5B00E0FF3395E0FEEBFD3395E0FCED2FFFECE0
:109D6B003EFEEF7803C333CE33CED8F9FF9000FA23
:109D7B00E0FD3395E0FC900194E0FB3395E0FAEBCA
:109D8B002DFDEA3CFCC374079DFDE49C4EFEED4F9C
:109D9B00FF9000F4E0FBA3E0FAA3E02FF9EA3EFA10
:109DAB0012C8AEFF9000FCE0FE7480A8060880028B
:109DBB00C313D8FC6F12C8F4900194E004F0029D19
:109DCB0008900195E004F0029CE89000FEE064032B
:109DDB00600302B618900192E0900195F090019308
:109DEB00E0FF900195E0FEC3EF6480F8EE6480988D
:109DFB00400302B618900190E0900194F09001910D
:109E0B00E0FF900194E0FEC3EF6480F8EE6480986D
:109E1B004003029F3A9000F7E0FBA3E0FAA3E0F9BE
:109E2B00EEFF3395E08F82F58312C8C7FD7C00905F
:109E3B000195E0FB74017E00A803088005C333CEB7
:109E4B0033CED8F9FFEE5CFEEF5D4E606A9000FBFF
:109E5B00E0FF3395E0FEEBFD3395E0FCED2FFFECDF
:109E6B003EFEEF7803C333CE33CED8F9FF9000FA22
:109E7B00E0FD3395E0FC900194E0FB3395E0FAEBC9
:109E8B002DFDEA3CFCC374079DFDE49C4EFEED4F9B
:109E9B00FF9000F4E0FBA3E0FAA3E02FF9EA3EFA0F
:109EAB0012C8AEFF9000FCE0FE7480A8060880028A
:109EBB00C313D8FC4F806C9000FBE0FF3395E0FEA2
:109ECB00900195E0FD3395E0FCED2FFFEC3EFEEFAE
:109EDB007803C333CE33CED8F9FF9000FAE0FD33CD
:109EEB0095E0FC900194E0FB3395E0FAEB2DFDEA55
:109EFB003CFCC374079DFDE49C4EFEED4FFF9000B0
:109F0B00F4E0FBA3E0FAA3E02FF9EA3EFA12C8AEA5
:109F1B00FF9000FCE0FE7480A806088002C313D8F3
:109F2B00FCF45F12C8F4900194E004F0029E0890D8
:109F3B000195E004F0029DE89000FFE064026003ED
:109F4B0002A3DF9000FEE0600302A055900192E0B7
:109F5B00900195F0900193E0FF900195E0FEC3EF27
:109F6B006480F8EE648098400302B618900190E08C
:109F7B00900194F0900191E0FF900194E0FEC3EF0B
:109F8B006480F8EE648098400302A04CA3E0FF339A
:109F9B0095E0FEC374079FFFE49EFE9000F7E0FB85
:109FAB00A3E0FAA3E0F98F828E8312C8C7FD7C0071
:109FBB00900194E0FB74017E00A803088005C33375
:109FCB00CE33CED8F9FFEE5CFEEF5D4E606A9000AB
:109FDB00FBE0FF3395E0FE900195E0FD3395E0FC4F
:109FEB00ED2FFFEC3EFEEF7803C333CE33CED8F923
:109FFB00FF9000FAE0FD3395E0FCEB3395E0FAEBD4
:10A00B002DFDEA3CFCC374079DFDE49C4EFEED4F19
:10A01B00FF9000F4E0FBA3E0FAA3E02FF9EA3EFA8D
:10A02B0012C8AEFF9000FCE0FE7480A80608800208
:10A03B00C313D8FC4F12C8F4900194E004F0029FB4
:10A04B007F900195E004F0029F5F9000FEE06401B9
:10A05B00600302A15F900192E0900195F090019353
:10A06B00E0FF900195E0FEC3EF6480F8EE6480980A
:10A07B00400302B618900190E0900194F09001918A
:10A08B00E0FF900194E0FEC3EF6480F8EE648098EB
:10A09B00400302A156A3E0FF3395E0FEC374079F74
:10A0AB00FFE49EFE9000F7E0FBA3E0FAA3E0F98F3C
:10A0BB00828E8312C8C7FD7C00900194E0FB740173
:10A0CB007E00A803088005C333CE33CED8F9FFEE4C
:10A0DB005CFEEF5D4E606B9000FBE0FF3395E0FEA6
:10A0EB00900195E0FD3395E0FCED2FFFEC3EFEEF8C
:10A0FB007803C333CE33CED8F9FF9000FAE0FD33AB
:10A10B0095E0FCEB3395E0FAEB2DFDEA3CFCC374D8
:10A11B00079DFDE49C4EFEED4FFF9000F4E0FBA38A
:10A12B00E0FAA3E02FF9EA3EFA12C8AEFF9000FC6A
:10A13B00E0FE7480A806088002C313D8FCF45F12FB
:10A14B00C8F4900194E004F002A088900195E0041B
:10A15B00F002A0689000FEE06402600302A2689027
:10A16B000192E0900195F0900193E0FF900195E052
:10A17B00FEC3EF6480F8EE648098400302B618903B
:10A18B000190E0900194F0900191E0FF900194E038
:10A19B00FEC3EF6480F8EE648098400302A25FA3D5
:10A1AB00E0FF3395E0FEC374079FFFE49EFE900033
:10A1BB00F7E0FBA3E0FAA3E0F98F828E8312C8C706
:10A1CB00FD7C00900194E0FB74017E00A8030880E5
:10A1DB0005C333CE33CED8F9FFEE5CFEEF5D4E6098
:10A1EB006A9000FBE0FF3395E0FE900195E0FD33B4
:10A1FB0095E0FCED2FFFEC3EFEEF7803C333CE333F
:10A20B00CED8F9FF9000FAE0FD3395E0FCEB3395E7
:10A21B00E0FAEB2DFDEA3CFCC374079DFDE49C4E7C
:10A22B00FEED4FFF9000F4E0FBA3E0FAA3E02FF963
:10A23B00EA3EFA12C8AEFF9000FCE0FE7480A8065E
:10A24B00088002C313D8FC6F12C8F4900194E00489
:10A25B00F002A192900195E004F002A1729000FE31
:10A26B00E06403600302B618900192E0900195F050
:10A27B00900193E0FF900195E0FEC3EF6480F8EE50
:10A28B00648098400302B618900190E0900194F01E
:10A29B00900191E0FF900194E0FEC3EF6480F8EE33
:10A2AB00648098400302A3D6A3E0FF3395E0FEC37E
:10A2BB0074079FFFE49EFE9000F7E0FBA3E0FAA378
:10A2CB00E0F98F828E8312C8C7FD7C00900194E069
:10A2DB00FB74017E00A803088005C333CE33CED8B0
:10A2EB00F9FFEE5CFEEF5D4E60699000FBE0FF3323
:10A2FB0095E0FE900195E0FD3395E0FCED2FFFEC32
:10A30B003EFEEF7803C333CE33CED8F9FF9000FA7D
:10A31B00E0FD3395E0FCEB3395E0FAEB2DFDEA3CE9
:10A32B00FCC374079DFDE49C4EFEED4FFF9000F4C3
:10A33B00E0FBA3E0FAA3E02FF9EA3EFA12C8AEFF66
:10A34B009000FCE0FE7480A806088002C313D8FCC2
:10A35B004F806C9000FBE0FF3395E0FE900195E0A1
:10A36B00FD3395E0FCED2FFFEC3EFEEF7803C3339E
:10A37B00CE33CED8F9FF9000FAE0FD3395E0FC9098
:10A38B000194E0FB3395E0FAEB2DFDEA3CFCC37442
:10A39B00079DFDE49C4EFEED4FFF9000F4E0FBA308
:10A3AB00E0FAA3E02FF9EA3EFA12C8AEFF9000FCE8
:10A3BB00E0FE7480A806088002C313D8FCF45F1279
:10A3CB00C8F4900194E004F002A29B900195E00484
:10A3DB00F002A27B9000FFE06403600302A87F9071
:10A3EB0000FEE0600302A4F2900192E0900195F070
:10A3FB00900193E0FF900195E0FEC3EF6480F8EECF
:10A40B00648098400302B618900190E0900194F09C
:10A41B00900191E0FF900194E0FEC3EF6480F8EEB1
:10A42B00648098400302A4E9EEFF3395E0FEC37409
:10A43B00079FFFE49EFE9000F7E0FBA3E0FAA3E08A
:10A44B00F98F828E8312C8C7FD7C00900195E0FBCB
:10A45B0074807E00A803088006CEA2E713CE13D823
:10A46B00F8FFEE5CFEEF5D4E606B9000FBE0FF33A0
:10A47B0095E0FEEBFD3395E0FCED2FFFEC3EFEEFA0
:10A48B007803C333CE33CED8F9FF9000FAE0FD3317
:10A49B0095E0FC900194E0FB3395E0FAEB2DFDEA9F
:10A4AB003CFCC374079DFDE49C4EFEED4FFF9000FA
:10A4BB00F4E0FBA3E0FAA3E02FF9EA3EFA12C8AEF0
:10A4CB00FF9000FCE0FE7480A806088002C313D83E
:10A4DB00FC4F12C8F4900194E004F002A41B90010D
:10A4EB0095E004F002A3FB9000FEE0640160030220
:10A4FB00A5FD900192E0900195F0900193E0FF9003
:10A50B000195E0FEC3EF6480F8EE6480984003028F
:10A51B00B618900190E0900194F0900191E0FF90BB
:10A52B000194E0FEC3EF6480F8EE64809840030270
:10A53B00A5F4EEFF3395E0FEC374079FFFE49EFE88
:10A54B009000F7E0FBA3E0FAA3E0F98F828E831271
:10A55B00C8C7FD7C00900195E0FB74807E00A803CA
:10A56B00088006CEA2E713CE13D8F8FFEE5CFEEF01
:10A57B005D4E606C9000FBE0FF3395E0FEEBFD332E
:10A58B0095E0FCED2FFFEC3EFEEF7803C333CE33AB
:10A59B00CED8F9FF9000FAE0FD3395E0FC900194E2
:10A5AB00E0FB3395E0FAEB2DFDEA3CFCC374079D11
:10A5BB00FDE49C4EFEED4FFF9000F4E0FBA3E0FAB0
:10A5CB00A3E02FF9EA3EFA12C8AEFF9000FCE0FEC2
:10A5DB007480A806088002C313D8FCF45F12C8F479
:10A5EB00900194E004F002A525900195E004F0029F
:10A5FB00A5059000FEE06402600302A7079001929C
:10A60B00E0900195F0900193E0FF900195E0FEC37F
:10A61B00EF6480F8EE648098400302B618900190C6
:10A62B00E0900194F0900191E0FF900194E0FEC363
:10A63B00EF6480F8EE648098400302A6FEEEFF33D1
:10A64B0095E0FEC374079FFFE49EFE9000F7E0FBCE
:10A65B00A3E0FAA3E0F98F828E8312C8C7FD7C00BA
:10A66B00900195E0FB74807E00A803088006CEA2C3
:10A67B00E713CE13D8F8FFEE5CFEEF5D4E606B90E8
:10A68B0000FBE0FF3395E0FEEBFD3395E0FCED2F97
:10A69B00FFEC3EFEEF7803C333CE33CED8F9FF90F9
:10A6AB0000FAE0FD3395E0FC900194E0FB3395E07C
:10A6BB00FAEB2DFDEA3CFCC374079DFDE49C4EFEBA
:10A6CB00ED4FFF9000F4E0FBA3E0FAA3E02FF9EAD3
:10A6DB003EFA12C8AEFF9000FCE0FE7480A806089C
:10A6EB008002C313D8FC6F12C8F4900194E004F0FD
:10A6FB0002A630900195E004F002A6109000FEE057
:10A70B006403600302B618900192E0900195F090FB
:10A71B000193E0FF900195E0FEC3EF6480F8EE64D7
:10A72B008098400302B618900190E0900194F0904D
:10A73B000191E0FF900194E0FEC3EF6480F8EE64BA
:10A74B008098400302A876EEFF3395E0FEC37407B2
:10A75B009FFFE49EFE9000F7E0FBA3E0FAA3E0F975
:10A76B008F828E8312C8C7FD7C00900195E0FB742D
:10A77B00807E00A803088006CEA2E713CE13D8F87C
:10A78B00FFEE5CFEEF5D4E606A9000FBE0FF3395E1
:10A79B00E0FEEBFD3395E0FCED2FFFEC3EFEEF789A
:10A7AB0003C333CE33CED8F9FF9000FAE0FD3395D7
:10A7BB00E0FC900194E0FB3395E0FAEB2DFDEA3CD5
:10A7CB00FCC374079DFDE49C4EFEED4FFF9000F41F
:10A7DB00E0FBA3E0FAA3E02FF9EA3EFA12C8AEFFC2
:10A7EB009000FCE0FE7480A806088002C313D8FC1E
:10A7FB004F806C9000FBE0FF3395E0FE900195E0FD
:10A80B00FD3395E0FCED2FFFEC3EFEEF7803C333F9
:10A81B00CE33CED8F9FF9000FAE0FD3395E0FC90F3
:10A82B000194E0FB3395E0FAEB2DFDEA3CFCC3749D
:10A83B00079DFDE49C4EFEED4FFF9000F4E0FBA363
:10A84B00E0FAA3E02FF9EA3EFA12C8AEFF9000FC43
:10A85B00E0FE7480A806088002C313D8FCF45F12D4
:10A86B00C8F4900194E004F002A73A900195E0043B
:10A87B00F002A71A9000FFE06404600302ACFF90A3
:10A88B0000FEE0600302A98A900192E0900195F02E
:10A89B00900193E0FF900195E0FEC3EF6480F8EE2A
:10A8AB00648098400302B618900190E0900194F0F8
:10A8BB00900191E0FF900194E0FEC3EF6480F8EE0D
:10A8CB00648098400302A9819000F7E0FBA3E0FAB3
:10A8DB00A3E0F9900195E0FF3395E08F82F58312A9
:10A8EB00C8C7FD7C00900194E0FB74017E00A803B7
:10A8FB00088005C333CE33CED8F9FFEE5CFEEF5D97
:10A90B004E606A9000FBE0FF3395E0FE900195E00E
:10A91B00FD3395E0FCED2FFFEC3EFEEF7803C333E8
:10A92B00CE33CED8F9FF9000FAE0FD3395E0FCEB87
:10A93B003395E0FAEB2DFDEA3CFCC374079DFDE477
:10A94B009C4EFEED4FFF9000F4E0FBA3E0FAA3E07A
:10A95B002FF9EA3EFA12C8AEFF9000FCE0FE7480BD
:10A96B00A806088002C313D8FC4F12C8F4900194B8
:10A97B00E004F002A8BB900195E004F002A89B90C4
:10A98B0000FEE06401600302AA8D900192E0900149
:10A99B0095F0900193E0FF900195E0FEC3EF64808A
:10A9AB00F8EE648098400302B618900190E0900195
:10A9BB0094F0900191E0FF900194E0FEC3EF64806E
:10A9CB00F8EE648098400302AA849000F7E0FBA3A2
:10A9DB00E0FAA3E0F9900195E0FF3395E08F82F563
:10A9EB008312C8C7FD7C00900194E0FB74017E00CC
:10A9FB00A803088005C333CE33CED8F9FFEE5CFE37
:10AA0B00EF5D4E606B9000FBE0FF3395E0FE900135
:10AA1B0095E0FD3395E0FCED2FFFEC3EFEEF780368
:10AA2B00C333CE33CED8F9FF9000FAE0FD3395E077
:10AA3B00FCEB3395E0FAEB2DFDEA3CFCC374079D70
:10AA4B00FDE49C4EFEED4FFF9000F4E0FBA3E0FA1B
:10AA5B00A3E02FF9EA3EFA12C8AEFF9000FCE0FE2D
:10AA6B007480A806088002C313D8FCF45F12C8F4E4
:10AA7B00900194E004F002A9BD900195E004F0026E
:10AA8B00A99D9000FEE06402600302AB8F900192DF
:10AA9B00E0900195F0900193E0FF900195E0FEC3EB
:10AAAB00EF6480F8EE648098400302B61890019032
:10AABB00E0900194F0900191E0FF900194E0FEC3CF
:10AACB00EF6480F8EE648098400302AB869000F749
:10AADB00E0FBA3E0FAA3E0F9900195E0FF3395E0EA
:10AAEB008F82F58312C8C7FD7C00900194E0FB7444
:10AAFB00017E00A803088005C333CE33CED8F9FFFF
:10AB0B00EE5CFEEF5D4E606A9000FBE0FF3395E07C
:10AB1B00FE900195E0FD3395E0FCED2FFFEC3EFE42
:10AB2B00EF7803C333CE33CED8F9FF9000FAE0FDB4
:10AB3B003395E0FCEB3395E0FAEB2DFDEA3CFCC3DF
:10AB4B0074079DFDE49C4EFEED4FFF9000F4E0FB7F
:10AB5B00A3E0FAA3E02FF9EA3EFA12C8AEFF900089
:10AB6B00FCE0FE7480A806088002C313D8FC6F12A9
:10AB7B00C8F4900194E004F002AAC0900195E0049F
:10AB8B00F002AAA09000FEE06403600302B61890E6
:10AB9B000192E0900195F0900193E0FF900195E018
:10ABAB00FEC3EF6480F8EE648098400302B6189001
:10ABBB000190E0900194F0900191E0FF900194E0FE
:10ABCB00FEC3EF6480F8EE648098400302ACF6900D
:10ABDB0000F7E0FBA3E0FAA3E0F9900195E0FF3367
:10ABEB0095E08F82F58312C8C7FD7C00900194E03D
:10ABFB00FB74017E00A803088005C333CE33CED887
:10AC0B00F9FFEE5CFEEF5D4E60699000FBE0FF33F9
:10AC1B0095E0FE900195E0FD3395E0FCED2FFFEC08
:10AC2B003EFEEF7803C333CE33CED8F9FF9000FA54
:10AC3B00E0FD3395E0FCEB3395E0FAEB2DFDEA3CC0
:10AC4B00FCC374079DFDE49C4EFEED4FFF9000F49A
:10AC5B00E0FBA3E0FAA3E02FF9EA3EFA12C8AEFF3D
:10AC6B009000FCE0FE7480A806088002C313D8FC99
:10AC7B004F806C9000FBE0FF3395E0FE900195E078
:10AC8B00FD3395E0FCED2FFFEC3EFEEF7803C33375
:10AC9B00CE33CED8F9FF9000FAE0FD3395E0FC906F
:10ACAB000194E0FB3395E0FAEB2DFDEA3CFCC37419
:10ACBB00079DFDE49C4EFEED4FFF9000F4E0FBA3DF
:10ACCB00E0FAA3E02FF9EA3EFA12C8AEFF9000FCBF
:10ACDB00E0FE7480A806088002C313D8FCF45F1250
:10ACEB00C8F4900194E004F002ABC2900195E0042B
:10ACFB00F002ABA29000FFE06405600302B19F90ED
:10AD0B0000FEE0600302AE12900192E0900195F01C
:10AD1B00900193E0FF900195E0FEC3EF6480F8EEA5
:10AD2B00648098400302B618900190E0900194F073
:10AD3B00900191E0FF900194E0FEC3EF6480F8EE88
:10AD4B00648098400302AE09A3E0FF3395E0FEC395
:10AD5B0074079FFFE49EFE9000F7E0FBA3E0FAA3CD
:10AD6B00E0F98F828E8312C8C7FD7C00900194E0BE
:10AD7B00FB74807E00A803088006CEA2E713CE13D7
:10AD8B00D8F8FFEE5CFEEF5D4E606A9000FBE0FFD3
:10AD9B003395E0FE900195E0FD3395E0FCED2FFF40
:10ADAB00EC3EFEEF7803C333CE33CED8F9FF9000E1
:10ADBB00FAE0FD3395E0FCEB3395E0FAEB2DFDEA81
:10ADCB003CFCC374079DFDE49C4EFEED4FFF9000D1
:10ADDB00F4E0FBA3E0FAA3E02FF9EA3EFA12C8AEC7
:10ADEB00FF9000FCE0FE7480A806088002C313D815
:10ADFB00FC4F12C8F4900194E004F002AD3B9001BB
:10AE0B0095E004F002AD1B9000FEE06401600302CC
:10AE1B00AF1D900192E0900195F0900193E0FF90AF
:10AE2B000195E0FEC3EF6480F8EE64809840030266
:10AE3B00B618900190E0900194F0900191E0FF9092
:10AE4B000194E0FEC3EF6480F8EE64809840030247
:10AE5B00AF14A3E0FF3395E0FEC374079FFFE49E9E
:10AE6B00FE9000F7E0FBA3E0FAA3E0F98F828E835C
:10AE7B0012C8C7FD7C00900194E0FB74807E00A893
:10AE8B0003088006CEA2E713CE13D8F8FFEE5CFEC4
:10AE9B00EF5D4E606B9000FBE0FF3395E0FE9001A1
:10AEAB0095E0FD3395E0FCED2FFFEC3EFEEF7803D4
:10AEBB00C333CE33CED8F9FF9000FAE0FD3395E0E3
:10AECB00FCEB3395E0FAEB2DFDEA3CFCC374079DDC
:10AEDB00FDE49C4EFEED4FFF9000F4E0FBA3E0FA87
:10AEEB00A3E02FF9EA3EFA12C8AEFF9000FCE0FE99
:10AEFB007480A806088002C313D8FCF45F12C8F450
:10AF0B00900194E004F002AE45900195E004F0024C
:10AF1B00AE259000FEE06402600302B02790019220
:10AF2B00E0900195F0900193E0FF900195E0FEC356
:10AF3B00EF6480F8EE648098400302B6189001909D
:10AF4B00E0900194F0900191E0FF900194E0FEC33A
:10AF5B00EF6480F8EE648098400302B01EA3E0FF1C
:10AF6B003395E0FEC374079FFFE49EFE9000F7E06D
:10AF7B00FBA3E0FAA3E0F98F828E8312C8C7FD7C96
:10AF8B0000900194E0FB74807E00A803088006CE3D
:10AF9B00A2E713CE13D8F8FFEE5CFEEF5D4E606AAE
:10AFAB009000FBE0FF3395E0FE900195E0FD3395BB
:10AFBB00E0FCED2FFFEC3EFEEF7803C333CE33CE38
:10AFCB00D8F9FF9000FAE0FD3395E0FCEB3395E008
:10AFDB00FAEB2DFDEA3CFCC374079DFDE49C4EFE91
:10AFEB00ED4FFF9000F4E0FBA3E0FAA3E02FF9EAAA
:10AFFB003EFA12C8AEFF9000FCE0FE7480A8060873
:10B00B008002C313D8FC6F12C8F4900194E004F0D3
:10B01B0002AF50900195E004F002AF309000FEE0DB
:10B02B006403600302B618900192E0900195F090D2
:10B03B000193E0FF900195E0FEC3EF6480F8EE64AE
:10B04B008098400302B618900190E0900194F09024
:10B05B000191E0FF900194E0FEC3EF6480F8EE6491
:10B06B008098400302B196A3E0FF3395E0FEC374D2
:10B07B00079FFFE49EFE9000F7E0FBA3E0FAA3E03E
:10B08B00F98F828E8312C8C7FD7C00900194E0FB80
:10B09B0074807E00A803088006CEA2E713CE13D8D7
:10B0AB00F8FFEE5CFEEF5D4E60699000FBE0FF3356
:10B0BB0095E0FE900195E0FD3395E0FCED2FFFEC64
:10B0CB003EFEEF7803C333CE33CED8F9FF9000FAB0
:10B0DB00E0FD3395E0FCEB3395E0FAEB2DFDEA3C1C
:10B0EB00FCC374079DFDE49C4EFEED4FFF9000F4F6
:10B0FB00E0FBA3E0FAA3E02FF9EA3EFA12C8AEFF99
:10B10B009000FCE0FE7480A806088002C313D8FCF4
:10B11B004F806C9000FBE0FF3395E0FE900195E0D3
:10B12B00FD3395E0FCED2FFFEC3EFEEF7803C333D0
:10B13B00CE33CED8F9FF9000FAE0FD3395E0FC90CA
:10B14B000194E0FB3395E0FAEB2DFDEA3CFCC37474
:10B15B00079DFDE49C4EFEED4FFF9000F4E0FBA33A
:10B16B00E0FAA3E02FF9EA3EFA12C8AEFF9000FC1A
:10B17B00E0FE7480A806088002C313D8FCF45F12AB
:10B18B00C8F4900194E004F002B05A900195E004E9
:10B19B00F002B03A9000FEE0600302B2A090019280
:10B1AB00E0900195F0900193E0FF900195E0FEC3D4
:10B1BB00EF6480F8EE648098400302B6189001901B
:10B1CB00E0900194F0900191E0FF900194E0FEC3B8
:10B1DB00EF6480F8EE648098400302B2979000F71A
:10B1EB00E0FBA3E0FAA3E0F9900195E0FF3395E0D3
:10B1FB008F82F58312C8C7FD7C00900194E0FB742D
:10B20B00807E00A803088006CEA2E713CE13D8F8E1
:10B21B00FFEE5CFEEF5D4E606A9000FBE0FF339546
:10B22B00E0FE900195E0FD3395E0FCED2FFFEC3E49
:10B23B00FEEF7803C333CE33CED8F9FF9000FAE09C
:10B24B00FD3395E0FCEB3395E0FAEB2DFDEA3CFC8E
:10B25B00C374079DFDE49C4EFEED4FFF9000F4E0A0
:10B26B00FBA3E0FAA3E02FF9EA3EFA12C8AEFF9077
:10B27B0000FCE0FE7480A806088002C313D8FC4FC4
:10B28B0012C8F4900194E004F002B1D0900195E063
:10B29B0004F002B1B09000FEE06401600302B3A4BD
:10B2AB00900192E0900195F0900193E0FF90019551
:10B2BB00E0FEC3EF6480F8EE648098400302B6189A
:10B2CB00900190E0900194F0900191E0FF90019437
:10B2DB00E0FEC3EF6480F8EE648098400302B39BFA
:10B2EB009000F7E0FBA3E0FAA3E0F9900195E0FFF3
:10B2FB003395E08F82F58312C8C7FD7C00900194D3
:10B30B00E0FB74807E00A803088006CEA2E713CE74
:10B31B0013D8F8FFEE5CFEEF5D4E606B9000FBE028
:10B32B00FF3395E0FE900195E0FD3395E0FCED2FAA
:10B33B00FFEC3EFEEF7803C333CE33CED8F9FF904C
:10B34B0000FAE0FD3395E0FCEB3395E0FAEB2DFDD5
:10B35B00EA3CFCC374079DFDE49C4EFEED4FFF9051
:10B36B0000F4E0FBA3E0FAA3E02FF9EA3EFA12C8DF
:10B37B00AEFF9000FCE0FE7480A806088002C313A9
:10B38B00D8FCF45F12C8F4900194E004F002B2D33D
:10B39B00900195E004F002B2B39000FEE06402600D
:10B3AB000302B4A7900192E0900195F0900193E015
:10B3BB00FF900195E0FEC3EF6480F8EE6480984047
:10B3CB000302B618900190E0900194F0900191E087
:10B3DB00FF900194E0FEC3EF6480F8EE6480984028
:10B3EB000302B49E9000F7E0FBA3E0FAA3E0F99010
:10B3FB000195E0FF3395E08F82F58312C8C7FD7C82
:10B40B0000900194E0FB74807E00A803088006CEB8
:10B41B00A2E713CE13D8F8FFEE5CFEEF5D4E606A29
:10B42B009000FBE0FF3395E0FE900195E0FD339536
:10B43B00E0FCED2FFFEC3EFEEF7803C333CE33CEB3
:10B44B00D8F9FF9000FAE0FD3395E0FCEB3395E083
:10B45B00FAEB2DFDEA3CFCC374079DFDE49C4EFE0C
:10B46B00ED4FFF9000F4E0FBA3E0FAA3E02FF9EA25
:10B47B003EFA12C8AEFF9000FCE0FE7480A80608EE
:10B48B008002C313D8FC6F12C8F4900194E004F04F
:10B49B0002B3D7900195E004F002B3B79000FEE041
:10B4AB006403600302B618900192E0900195F0904E
:10B4BB000193E0FF900195E0FEC3EF6480F8EE642A
:10B4CB008098400302B618900190E0900194F090A0
:10B4DB000191E0FF900194E0FEC3EF6480F8EE640D
:10B4EB008098400302B60F9000F7E0FBA3E0FAA3AD
:10B4FB00E0F9900195E0FF3395E08F82F58312C858
:10B50B00C7FD7C00900194E0FB74807E00A80308CB
:10B51B008006CEA2E713CE13D8F8FFEE5CFEEF5DEC
:10B52B004E60699000FBE0FF3395E0FE900195E0E3
:10B53B00FD3395E0FCED2FFFEC3EFEEF7803C333BC
:10B54B00CE33CED8F9FF9000FAE0FD3395E0FCEB5B
:10B55B003395E0FAEB2DFDEA3CFCC374079DFDE44B
:10B56B009C4EFEED4FFF9000F4E0FBA3E0FAA3E04E
:10B57B002FF9EA3EFA12C8AEFF9000FCE0FE748091
:10B58B00A806088002C313D8FC4F806C9000FBE028
:10B59B00FF3395E0FE900195E0FD3395E0FCED2F38
:10B5AB00FFEC3EFEEF7803C333CE33CED8F9FF90DA
:10B5BB0000FAE0FD3395E0FC900194E0FB3395E05D
:10B5CB00FAEB2DFDEA3CFCC374079DFDE49C4EFE9B
:10B5DB00ED4FFF9000F4E0FBA3E0FAA3E02FF9EAB4
:10B5EB003EFA12C8AEFF9000FCE0FE7480A806087D
:10B5FB008002C313D8FCF45F12C8F4900194E004EA
:0DB60B00F002B4DA900195E004F002B4BA48
:01B61800220F
:0BCF51009000E7EBF0A3EAF0A3E9F08A
:10CF5C009000EDE0FFD364809478500302D08EEF04
:10CF6C0064809488400302D08EA3E0FF64809478A0
:10CF7C00500302D08EEF64809488400302D08EA3BD
:10CF8C00E0FF64809478500302D08EEF6480948824
:10CF9C00400302D08EC3EF64809480500DEFF404F4
:10CFAC00900196F0A37408F08012E4900196F09032
:10CFBC0000EFE0FFC374089F900197F0900196E09A
:10CFCC00900198F0900197E0FFA3E0FEC3EF64801E
:10CFDC00F8EE648098400302D08EE49000F3F09059
:10CFEC0000F3E0FFC39408503EEF75F008A4FF90E7
:10CFFC000198E0FD3395E045F0FEEF4DFF9000EA1F
:10D00C00E0FBA3E0FAA3E0F98F828E8312C8C7FF7E
:10D01C009000F3E02499F582E43401F583EFF0906D
:10D02C0000F3E004F080B89000F77401F0A37401F1
:10D03C00F0A37499F09000EDE09000FAF09000EEFF
:10D04C00E09000FBF09000EFE0FF900198E02F9053
:10D05C0000FCF09000F0E09000FDF09000F1E0900A
:10D06C0000FEF09000F2E09000FFF09000E7E0FB93
:10D07C00A3E0FAA3E0F9126600900198E004F00234
:02D08C00CFD003
:01D08E00227F
:10010000A517F15504000405FFFFFFFF00000001E3
:10011000000000010000000000300021013800153F
:100120000678000006780000067800000678001ABD
:100130003C4202023C02423CFFFFFFFFFFFFFFFF89
:10014000C3810000000081C33C4281818181423C27
:10015000003C424242423C000000182424180000A7
:1001600000000018180000007E4020180402423CE5
:100170007E080808080828187C4242424242427C15
:100180003C4242423C42423C38EE44EE446C281031
:100190007E1818181818187E183C7EFFFFFF66009E
:1001A0003C66666666666666E7E7E70000E7E7E7DF
:1001B000E7E7E7E7E7E7E7E7C3C300000000C3C3FB
:1001C00006C6C000000363600C0CC0C003033030DF
:1001D000181800C3C3001818729595BD85858572DF
:1001E00018000000000000007E7E7E7E7E7E7E7E07
:1001F000AEA8AEEAAEA0A000575555555750000026
:1002000080808080808080800010305F815F30102F
:100210001C14141477221408181818182442818109
:100220007F4040407F40407F8181FF818142241890
:10023000474850607C42427CFF818181818181FFFF
:1002400081000000000000818100000000000081AA
:10025000810000000000008181000000000000819A
:10026000810000000000008181000000000000818A
:10027000FF818181818181FFFFFFFFFFFFFFFFFF82
:10028000FFFFFFFFFFFFFFFFFFFFFFFFFFFFFFFF7E
:10029000FFFFFFFFFFFFFFFFFFFFFFFFFFFFFFFF6E
:1002A000FFFFFFFFFFFFFFFFFFFFFFFFFFFFFFFF5E
:1002B000FFFFFFFFFFFFFFFF000000000000000046
:1002C0000000000000000000000000100800000016
:1002D00000001004001000000008240024080000A2
:1002E00000001004100000000000001008000000D2
:1002F00000000000000000000000000818000000DE
:10030000000C2042421400000018024000021800B5
:100310000822400041022008082002800200241028
:1003200000182000422008000010042200140000E1
:100330000000000820000000000000000000000095
:1003400000000000000000000000000000000000AD
:100350000000001008000000000020181C0C000025
:10036000000004081020000000020000000040000F
:1003700001000000000000800000000000000000FC
:10038000000000000000000000000000000000006D
:10039000000000181C0C000000040608106020007B
:1003A000010200000000408000000000000000008A
:1003B000000000000000000000000000000000003D
:1003C00000000000000000000106060000606080E0
:1003D0000000040810200000000020181C0C000081
:1003E000000000000000000000000000000000000D
:1003F00000000000000000000000001008040000E1
:100400000040201000040201000020000000020053
:100410000000001008040000004020100804020141
:10042000000020000000020000000010080400008E
:100430000000000008000000000000040810000098
:100440000001020400102040000002000000200013
:100450000000000408100000000102040810204001
:10046000000002000000200000000004081000004E
:100470000000000008000000000000001C00000058
:1004800000000000770000000000000022000000D3
:10049000000000001C000000000000007F000000C1
:1004A0000000000022000000000000001C0000000E
:1004B000000000000800000000000008080800001C
:1004C00000080808000808080000080000000800EC
:1004D00000000008080800000008080808080808CC
:1004E00000000800000008000000000808080000E4
:1004F00000000000080000000000000000000000F4
:1005000001000000000000800006020000406000C2
:100510000000040810200000000000181C08000063
:10052000004020100804000000000000000000004F
:1005300000000000000000000000000810000000A3
:1005400000000408102000000002040810204000F1
:10055000010204081020408001020408102040809D
:100560000102040810204080000204000020400026
:1005700000000000000000000002040810204000FD
:10058000000000081000000000000008100000003B
:10059000000000081000000000000008100000002B
:1005A000000000081000000000000008100000001B
:1005B0000002040810204000000004081020000081
:1005C000000204000020400000020400002040005F
:1005D000000204000020400000020400002040004F
:1005E000000204000020400000020400002040003F
:1005F00000020400002040007EFFFFFFFFFFFF7E9F
:10060000FF818181818181FFFF818181818181FFE2
:10061000FF818181818181FFFF818181818181FFD2
:10062000FF818181818181FFFF818181818181FFC2
:100630007EFFFFFFFFFFFF7E0000000000000000C4
:10064000003C7E7E7E7E3C00007E424242427E0036
:10065000007E424242427E00007E424242427E0092
:10066000007E424242427E00003C7E7E7E7E3C0016
:10067000000000000000000000000000000000007A
:1006800000000000000000000000183C3C180000C2
:1006900000003C24243C000000003C24243C0000DA
:1006A0000000183C3C1800000000000000000000A2
:1006B000000000000000000000000000000000003A
:1006C000000000000000000000000000000000002A
:1006D00000000018180000000000001818000000BA
:1006E000000000000000000000000000000000000A
:1006F0000000000000000000FF818181818181FFF6
:10070000FF818181818181FFFF818181818181FFE1
:10071000FF818181818181FFFF818181818181FFD1
:10072000FF818181818181FFFF818181818181FFC1
:10073000FF818181818181FFFF818181818181FFB1
:10074000007E424242427E0000003C24243C0000E5
:100750000000001818000000000000181800000039
:1007600000003C24243C0000007E424242427E00C5
:10077000FF818181818181FF0000007C00020001F6
:100780000000002C000A00C8000101000001000068
:100790000000001C00030001000000090000000030
:1007A00000000000000100010100000000000048FE
:1007B000000A019000010100000200000000001C7E
:1007C000000200010000000A00000000000000001C
:1007D00000010019010200000000001C00020001DD
:1007E0000000000A00000000000000000001001AE4
:1007F0000100000000000180000400010000004032
:10080000001400640001010000010000000000303D
:1008100000020002000000080000000000000007C5
:1008200000010001010000000008000B00000000B2
:100830000000000000010001010000000000004075
:1008400000140064000101000001000000000030FD
:100850000002000200000008000000000000000785
:1008600000010008010000000008000B000000006B
:10087000000000000001000801000000000000402E
:1008800000140064000101000001000000000030BD
:100890000002000200000008000000000000000745
:1008A00000010009010000000008000B000000002A
:1008B000000000000001000901000000000000B875
:1008C000003A00640001010000010000000000A8DF
:1008D00000020008000000080000000000000007FF
:1008E00000010016010000000008000500000000E3
:1008F000000000010501001601000000000D0005C8
:1009000000000000000000040001001601000000CB
:1009100000120005000000000000000105010016A3
:1009200001000000001700050000000000000004A6
:100930000001001601000000001C0005000000007E
:100940000000000105010016010000000021000563
:10095000000000000000000400010016010000007B
:100960000026001300000000000000000001001637
:1009700001000000000000D800010001000000D0CC
:1009800000070064000801000006000000000020CD
:100990000001000100000007000008000800000836
:1009A0000700000000000000000000000000002020
:1009B0000001000100000007000008070000080017
:1009C00008000000000000000000000000000020FF
:1009D00000010001000000070000080008000008F6
:1009E00007000003030303000000000000000020D4
:1009F00000010001000000070000080700000800D7
:100A000008000003030303000000000000000020B2
